:100000000C945D000C9485000C9485000C94850084
:100010000C9485000C9485000C9485000C9485004C
:100020000C9485000C9485000C9485000C9485003C
:100030000C9485000C9485000C9485000C9485002C
:100040000C94EF010C9485000C945F020C9439021F
:100050000C9485000C9485000C9485000C9485000C
:100060000C9485000C94850000000008000201003B
:100070000003040700000000000000000000000072
:10008000250028002B0000000000240027002A0083
:10009000040404040404040402020202020203032E
:1000A0000303030301020408102040800102040836
:1000B0001020010204081020B20311241FBECFEF4C
:1000C000D8E0DEBFCDBF11E0A0E0B1E0E6EEF7E0A2
:1000D00002C005900D92AA32B107D9F721E0AAE239
:1000E000B1E001C01D92A73DB207E1F710E0CDE5F8
:1000F000D0E004C02197FE010E94DF03CC35D10778
:10010000C9F70E9491020C94F1030C94000090E056
:10011000FC01EC55FF4F2491FC01E057FF4F849107
:10012000882399F090E0880F991FFC01EA57FF4F50
:10013000A591B491FC01E458FF4F859194918FB73C
:10014000F894EC91E22BEC938FBF08953FB7F894AD
:100150008091360190913701A0913801B091390119
:1001600026B5A89B05C02F3F19F00196A11DB11D12
:100170003FBFBA2FA92F982F8827820F911DA11D4D
:10018000B11DBC01CD0142E0660F771F881F991F8A
:100190004A95D1F70895FC01538D448D252F30E009
:1001A000842F90E0821B930B541710F0CF96089584
:1001B00001970895FC01918D828D981761F0828DD1
:1001C000DF01A80FB11D5D968C91928D9F5F9F738B
:1001D000928F90E008958FEF9FEF0895FC01918D2D
:1001E000828D981731F0828DE80FF11D858D90E09A
:1001F00008958FEF9FEF0895FC01918D228D892F37
:1002000090E0805C9F4F821B91098F73992708951E
:10021000FC01848DDF01A80FB11DA35ABF4F2C91A3
:10022000848D90E001968F739927848FA689B78972
:100230002C93A089B1898C91837080648C93938D69
:10024000848D981306C00288F389E02D80818F7D0C
:1002500080830895EF92FF920F931F93CF93DF93C4
:10026000EC0181E0888F9B8D8C8D981305C0E88907
:10027000F989808185FD26C0F62E0B8D10E00F5F79
:100280001F4F0F731127E02E8C8DE8120CC00FB694
:1002900007FCFACFE889F989808185FFF5CFCE0187
:1002A0000E940801F1CF8B8DFE01E80FF11DE35A8A
:1002B000FF4FF0829FB7F8940B8FEA89FB8980810A
:1002C00080620AC09FB7F894EE89FF896083E8894D
:1002D000F98980818370806480839FBF81E090E092
:1002E000DF91CF911F910F91FF90EF900895CF93E1
:1002F000DF93EC01888D8823C9F0EA89FB8980812E
:1003000085FD05C0A889B9898C9186FD0FC00FB6FF
:1003100007FCF5CF808185FFF2CFA889B9898C9140
:1003200085FFEDCFCE010E940801E7CFDF91CF918D
:1003300008958AE391E00E94FC0021E0892B09F4F2
:1003400020E0822F089580E090E0892B29F00E9420
:10035000990181110C9400000895CF92DF92EF92E1
:10036000FF920F931F93CF93DF936C017A018B0160
:10037000C0E0D0E0CE15DF0581F0D8016D918D0190
:10038000D601ED91FC910190F081E02DC601099517
:10039000892B11F02196EECF7E01C701DF91CF911D
:1003A0001F910F91FF90EF90DF90CF9008950895E7
:1003B00080E090E00895009769F0FC010190002032
:1003C000E9F73197AF01481B590BBC018AE391E073
:1003D0000C94AD0180E090E008950E94E5031F9227
:1003E0000F920FB60F9211242F933F938F939F93E9
:1003F000AF93BF938091320190913301A09134016A
:10040000B09135013091310123E0230F2D3720F4D5
:100410000196A11DB11D05C026E8230F0296A11D5E
:10042000B11D209331018093320190933301A09349
:100430003401B09335018091360190913701A0913C
:100440003801B09139010196A11DB11D809336018B
:1004500090933701A0933801B0933901BF91AF91C8
:100460009F918F913F912F910F900FBE0F901F90F2
:1004700018951F920F920FB60F9211242F933F934E
:100480004F935F936F937F938F939F93AF93BF939C
:10049000EF93FF938AE391E00E940801FF91EF91AF
:1004A000BF91AF919F918F917F916F915F914F918C
:1004B0003F912F910F900FBE0F901F9018951F9294
:1004C0000F920FB60F9211242F938F939F93EF9358
:1004D000FF93E0914A01F0914B018081E09150013E
:1004E000F091510182FD12C09081809153018F5F84
:1004F0008F7320915401821751F0E0915301F0E085
:10050000E65CFE4F958F8093530101C08081FF917F
:10051000EF919F918F912F910F900FBE0F901F9091
:100520001895789484B5826084BD84B5816084BD5B
:1005300085B5826085BD85B5816085BD80916E0081
:10054000816080936E0010928100809181008260B2
:1005500080938100809181008160809381008091EF
:1005600080008160809380008091B10084608093DE
:10057000B1008091B00081608093B00080917A00DA
:10058000846080937A0080917A00826080937A0000
:1005900080917A00816080937A0080917A008068EF
:1005A00080937A001092C100E0914A01F0914B01D2
:1005B00082E08083E0914601F09147011082E09152
:1005C0004801F09149018FEC808310925201E09133
:1005D0004E01F0914F0186E08083E0914C01F09153
:1005E0004D01808180618083E0914C01F0914D014B
:1005F000808188608083E0914C01F0914D01808181
:1006000080688083E0914C01F0914D0180818F7D65
:10061000808389E191E00E94DB0180E291E00E9409
:10062000DB0182E00E94870083E00E94870084E073
:100630000E94870085E00E94870086E00E94870074
:1006400087E00E9487008DE00E948700C5E7D0E028
:1006500001EB10E09DE9E92E90E0F92E8AE391E0AC
:100660000E94FC00181619060CF068C08AE391E09D
:100670000E94DA008F3241F0EAE2F1E0819321E05A
:10068000E133F207D9F7EACF10922A016AE271E06A
:1006900080E091E00E94EA0383E291E00E94DB01A6
:1006A00080E091E00E94DB0180E291E00E94DB01AA
:1006B00080910201813391F6FE018491F801249129
:1006C000F7013491332351F2882349F18330A1F0AB
:1006D00038F48130B9F0823011F594B59F7D14C0A3
:1006E0008730A1F08830B1F08430C9F49091800057
:1006F0009F7D9093800013C0809180008F778093BE
:1007000080000DC094B59F7794BD09C09091B00052
:100710009F7703C09091B0009F7D9093B000E32F2E
:10072000F0E0EE0FFF1FE458FF4FA591B4919FB783
:10073000F8948C91822B8C939FBF90CF0E94A6003F
:100740004B015C010E94A600DC01CB0188199909CC
:10075000AA09BB09883E9340A105B10598F30E9400
:10076000A3017CCFEAE3F1E01382128288EE93E0EA
:10077000A0E0B0E084839583A683B7838BE091E00B
:100780009183808385EC90E09587848784EC90E06A
:100790009787868780EC90E0918B808B81EC90E04E
:1007A000938B828B82EC90E0958B848B86EC90E02F
:1007B000978B868B118E128E138E148E0895EE0FEA
:1007C000FF1F0590F491E02D099481E090E0F894EA
:1007D0000C94F103FB01DC0101900D920020E1F784
:0607E0000895F894FFCF1C
:1007E60031323334353600000000002A01AD01CB2A
:1007F600007701FC00DA00EE0052656164793A0088
:0A0806000D0A00446174613A2000FD
:00000001FF
